{
  "_format": "hh-sol-artifact-1",
  "contractName": "YieldVerifier",
  "sourceName": "contracts/YieldVerifier.sol",
  "abi": [
    {
      "inputs": [],
      "stateMutability": "nonpayable",
      "type": "constructor"
    },
    {
      "anonymous": false,
      "inputs": [
        {
          "indexed": true,
          "internalType": "address",
          "name": "strategy",
          "type": "address"
        },
        {
          "indexed": false,
          "internalType": "uint256",
          "name": "performanceScore",
          "type": "uint256"
        },
        {
          "indexed": false,
          "internalType": "uint256",
          "name": "benchmarkYield",
          "type": "uint256"
        }
      ],
      "name": "MetricsUpdated",
      "type": "event"
    },
    {
      "anonymous": false,
      "inputs": [
        {
          "indexed": true,
          "internalType": "bytes32",
          "name": "role",
          "type": "bytes32"
        },
        {
          "indexed": true,
          "internalType": "bytes32",
          "name": "previousAdminRole",
          "type": "bytes32"
        },
        {
          "indexed": true,
          "internalType": "bytes32",
          "name": "newAdminRole",
          "type": "bytes32"
        }
      ],
      "name": "RoleAdminChanged",
      "type": "event"
    },
    {
      "anonymous": false,
      "inputs": [
        {
          "indexed": true,
          "internalType": "bytes32",
          "name": "role",
          "type": "bytes32"
        },
        {
          "indexed": true,
          "internalType": "address",
          "name": "account",
          "type": "address"
        },
        {
          "indexed": true,
          "internalType": "address",
          "name": "sender",
          "type": "address"
        }
      ],
      "name": "RoleGranted",
      "type": "event"
    },
    {
      "anonymous": false,
      "inputs": [
        {
          "indexed": true,
          "internalType": "bytes32",
          "name": "role",
          "type": "bytes32"
        },
        {
          "indexed": true,
          "internalType": "address",
          "name": "account",
          "type": "address"
        },
        {
          "indexed": true,
          "internalType": "address",
          "name": "sender",
          "type": "address"
        }
      ],
      "name": "RoleRevoked",
      "type": "event"
    },
    {
      "inputs": [],
      "name": "DECAY_FACTOR",
      "outputs": [
        {
          "internalType": "uint256",
          "name": "",
          "type": "uint256"
        }
      ],
      "stateMutability": "view",
      "type": "function"
    },
    {
      "inputs": [],
      "name": "DEFAULT_ADMIN_ROLE",
      "outputs": [
        {
          "internalType": "bytes32",
          "name": "",
          "type": "bytes32"
        }
      ],
      "stateMutability": "view",
      "type": "function"
    },
    {
      "inputs": [],
      "name": "MINIMUM_HISTORY_PERIOD",
      "outputs": [
        {
          "internalType": "uint256",
          "name": "",
          "type": "uint256"
        }
      ],
      "stateMutability": "view",
      "type": "function"
    },
    {
      "inputs": [],
      "name": "PERFORMANCE_SCALE",
      "outputs": [
        {
          "internalType": "uint256",
          "name": "",
          "type": "uint256"
        }
      ],
      "stateMutability": "view",
      "type": "function"
    },
    {
      "inputs": [],
      "name": "VERIFIER_ROLE",
      "outputs": [
        {
          "internalType": "bytes32",
          "name": "",
          "type": "bytes32"
        }
      ],
      "stateMutability": "view",
      "type": "function"
    },
    {
      "inputs": [
        {
          "internalType": "address",
          "name": "strategy",
          "type": "address"
        },
        {
          "internalType": "uint256",
          "name": "timestamp",
          "type": "uint256"
        }
      ],
      "name": "getHistoricalData",
      "outputs": [
        {
          "components": [
            {
              "internalType": "uint256",
              "name": "timestamp",
              "type": "uint256"
            },
            {
              "internalType": "uint256",
              "name": "yield",
              "type": "uint256"
            },
            {
              "internalType": "uint256",
              "name": "depositAmount",
              "type": "uint256"
            },
            {
              "internalType": "uint256",
              "name": "withdrawalAmount",
              "type": "uint256"
            }
          ],
          "internalType": "struct YieldVerifier.HistoricalData",
          "name": "",
          "type": "tuple"
        }
      ],
      "stateMutability": "view",
      "type": "function"
    },
    {
      "inputs": [
        {
          "internalType": "bytes32",
          "name": "role",
          "type": "bytes32"
        }
      ],
      "name": "getRoleAdmin",
      "outputs": [
        {
          "internalType": "bytes32",
          "name": "",
          "type": "bytes32"
        }
      ],
      "stateMutability": "view",
      "type": "function"
    },
    {
      "inputs": [
        {
          "internalType": "address",
          "name": "strategy",
          "type": "address"
        }
      ],
      "name": "getStrategyMetrics",
      "outputs": [
        {
          "components": [
            {
              "internalType": "uint256",
              "name": "totalYield",
              "type": "uint256"
            },
            {
              "internalType": "uint256",
              "name": "depositAmount",
              "type": "uint256"
            },
            {
              "internalType": "uint256",
              "name": "lastUpdateTimestamp",
              "type": "uint256"
            },
            {
              "internalType": "uint256",
              "name": "performanceScore",
              "type": "uint256"
            },
            {
              "internalType": "uint256",
              "name": "benchmarkYield",
              "type": "uint256"
            },
            {
              "internalType": "uint256",
              "name": "volatility",
              "type": "uint256"
            },
            {
              "internalType": "uint256",
              "name": "uptime",
              "type": "uint256"
            }
          ],
          "internalType": "struct YieldVerifier.StrategyMetrics",
          "name": "",
          "type": "tuple"
        }
      ],
      "stateMutability": "view",
      "type": "function"
    },
    {
      "inputs": [
        {
          "internalType": "address",
          "name": "strategy",
          "type": "address"
        }
      ],
      "name": "getStrategyTimestamps",
      "outputs": [
        {
          "internalType": "uint256[]",
          "name": "",
          "type": "uint256[]"
        }
      ],
      "stateMutability": "view",
      "type": "function"
    },
    {
      "inputs": [
        {
          "internalType": "bytes32",
          "name": "role",
          "type": "bytes32"
        },
        {
          "internalType": "address",
          "name": "account",
          "type": "address"
        }
      ],
      "name": "grantRole",
      "outputs": [],
      "stateMutability": "nonpayable",
      "type": "function"
    },
    {
      "inputs": [
        {
          "internalType": "bytes32",
          "name": "role",
          "type": "bytes32"
        },
        {
          "internalType": "address",
          "name": "account",
          "type": "address"
        }
      ],
      "name": "hasRole",
      "outputs": [
        {
          "internalType": "bool",
          "name": "",
          "type": "bool"
        }
      ],
      "stateMutability": "view",
      "type": "function"
    },
    {
      "inputs": [
        {
          "internalType": "address",
          "name": "",
          "type": "address"
        },
        {
          "internalType": "uint256",
          "name": "",
          "type": "uint256"
        }
      ],
      "name": "historicalData",
      "outputs": [
        {
          "internalType": "uint256",
          "name": "timestamp",
          "type": "uint256"
        },
        {
          "internalType": "uint256",
          "name": "yield",
          "type": "uint256"
        },
        {
          "internalType": "uint256",
          "name": "depositAmount",
          "type": "uint256"
        },
        {
          "internalType": "uint256",
          "name": "withdrawalAmount",
          "type": "uint256"
        }
      ],
      "stateMutability": "view",
      "type": "function"
    },
    {
      "inputs": [
        {
          "internalType": "bytes32",
          "name": "role",
          "type": "bytes32"
        },
        {
          "internalType": "address",
          "name": "account",
          "type": "address"
        }
      ],
      "name": "renounceRole",
      "outputs": [],
      "stateMutability": "nonpayable",
      "type": "function"
    },
    {
      "inputs": [
        {
          "internalType": "bytes32",
          "name": "role",
          "type": "bytes32"
        },
        {
          "internalType": "address",
          "name": "account",
          "type": "address"
        }
      ],
      "name": "revokeRole",
      "outputs": [],
      "stateMutability": "nonpayable",
      "type": "function"
    },
    {
      "inputs": [
        {
          "internalType": "address",
          "name": "",
          "type": "address"
        }
      ],
      "name": "strategyMetrics",
      "outputs": [
        {
          "internalType": "uint256",
          "name": "totalYield",
          "type": "uint256"
        },
        {
          "internalType": "uint256",
          "name": "depositAmount",
          "type": "uint256"
        },
        {
          "internalType": "uint256",
          "name": "lastUpdateTimestamp",
          "type": "uint256"
        },
        {
          "internalType": "uint256",
          "name": "performanceScore",
          "type": "uint256"
        },
        {
          "internalType": "uint256",
          "name": "benchmarkYield",
          "type": "uint256"
        },
        {
          "internalType": "uint256",
          "name": "volatility",
          "type": "uint256"
        },
        {
          "internalType": "uint256",
          "name": "uptime",
          "type": "uint256"
        }
      ],
      "stateMutability": "view",
      "type": "function"
    },
    {
      "inputs": [
        {
          "internalType": "address",
          "name": "",
          "type": "address"
        },
        {
          "internalType": "uint256",
          "name": "",
          "type": "uint256"
        }
      ],
      "name": "strategyTimestamps",
      "outputs": [
        {
          "internalType": "uint256",
          "name": "",
          "type": "uint256"
        }
      ],
      "stateMutability": "view",
      "type": "function"
    },
    {
      "inputs": [
        {
          "internalType": "bytes4",
          "name": "interfaceId",
          "type": "bytes4"
        }
      ],
      "name": "supportsInterface",
      "outputs": [
        {
          "internalType": "bool",
          "name": "",
          "type": "bool"
        }
      ],
      "stateMutability": "view",
      "type": "function"
    },
    {
      "inputs": [
        {
          "internalType": "address",
          "name": "strategy",
          "type": "address"
        },
        {
          "internalType": "uint256",
          "name": "yield",
          "type": "uint256"
        },
        {
          "internalType": "uint256",
          "name": "depositAmount",
          "type": "uint256"
        },
        {
          "internalType": "uint256",
          "name": "withdrawalAmount",
          "type": "uint256"
        }
      ],
      "name": "updateStrategyData",
      "outputs": [],
      "stateMutability": "nonpayable",
      "type": "function"
    }
  ],
  "bytecode": "0x608060405234801561001057600080fd5b506001805561002060003361004f565b61004a7f0ce23c3e399818cfee81a7ab0880f714e53d7672b08df0fa62f2843416e1ea093361004f565b6100fb565b610059828261005d565b5050565b6000828152602081815260408083206001600160a01b038516845290915290205460ff16610059576000828152602081815260408083206001600160a01b03851684529091529020805460ff191660011790556100b73390565b6001600160a01b0316816001600160a01b0316837f2f8788117e7eff1d82e926ec794901d17c78024a50270940304540a733656f0d60405160405180910390a45050565b6112898061010a6000396000f3fe608060405234801561001057600080fd5b50600436106101165760003560e01c8063ad6e8cda116100a2578063da4b81d911610071578063da4b81d91461033f578063dcd898fa1461039e578063e08eae5f146103a6578063e7705db6146103ae578063ffe554e2146103d557600080fd5b8063ad6e8cda14610279578063b020b9e71461028c578063b6e85026146102ac578063d547741f1461032c57600080fd5b80632f2ff15d116100e95780632f2ff15d146101f057806336568abe146102055780637e58174d1461021857806391d148541461025e578063a217fddf1461027157600080fd5b806301fc7f461461011b57806301ffc9a7146101415780630bd6b07014610164578063248a9ca3146101cd575b600080fd5b61012e610129366004610e95565b6103df565b6040519081526020015b60405180910390f35b61015461014f366004610ebf565b610410565b6040519015158152602001610138565b610177610172366004610ee9565b610447565b6040516101389190600060e082019050825182526020830151602083015260408301516040830152606083015160608301526080830151608083015260a083015160a083015260c083015160c083015292915050565b61012e6101db366004610f04565b60009081526020819052604090206001015490565b6102036101fe366004610f1d565b6104f0565b005b610203610213366004610f1d565b61051a565b61022b610226366004610e95565b61059d565b60405161013891908151815260208083015190820152604080830151908201526060918201519181019190915260800190565b61015461026c366004610f1d565b61061f565b61012e600081565b610203610287366004610f49565b610648565b61029f61029a366004610ee9565b6107f1565b6040516101389190610f82565b6102f76102ba366004610ee9565b6002602081905260009182526040909120805460018201549282015460038301546004840154600585015460069095015493959492939192909187565b604080519788526020880196909652948601939093526060850191909152608084015260a083015260c082015260e001610138565b61020361033a366004610f1d565b61085d565b61037e61034d366004610e95565b6003602081815260009384526040808520909152918352912080546001820154600283015492909301549092919084565b604080519485526020850193909352918301526060820152608001610138565b61012e606481565b61012e605f81565b61012e7f0ce23c3e399818cfee81a7ab0880f714e53d7672b08df0fa62f2843416e1ea0981565b61012e62ed4e0081565b600460205281600052604060002081815481106103fb57600080fd5b90600052602060002001600091509150505481565b60006001600160e01b03198216637965db0b60e01b148061044157506301ffc9a760e01b6001600160e01b03198316145b92915050565b6104876040518060e00160405280600081526020016000815260200160008152602001600081526020016000815260200160008152602001600081525090565b506001600160a01b0316600090815260026020818152604092839020835160e0810185528154815260018201549281019290925291820154928101929092526003810154606083015260048101546080830152600581015460a08301526006015460c082015290565b60008281526020819052604090206001015461050b81610882565b610515838361088f565b505050565b6001600160a01b038116331461058f5760405162461bcd60e51b815260206004820152602f60248201527f416363657373436f6e74726f6c3a2063616e206f6e6c792072656e6f756e636560448201526e103937b632b9903337b91039b2b63360891b60648201526084015b60405180910390fd5b6105998282610913565b5050565b6105c86040518060800160405280600081526020016000815260200160008152602001600081525090565b506001600160a01b0382166000908152600360208181526040808420858552825292839020835160808101855281548152600182015492810192909252600281015493820193909352910154606082015292915050565b6000918252602082815260408084206001600160a01b0393909316845291905290205460ff1690565b7f0ce23c3e399818cfee81a7ab0880f714e53d7672b08df0fa62f2843416e1ea0961067281610882565b61067a610978565b6001600160a01b0385166106d05760405162461bcd60e51b815260206004820152601860248201527f496e76616c6964207374726174656779206164647265737300000000000000006044820152606401610586565b60408051608081018252428082526020808301888152838501888152606085018881526001600160a01b038c166000818152600380875289822088835287528982209851895594516001808a019190915593516002808a0191909155925197909401969096558583526004845286832080549283018155835283832090910184905593815292905291812080549091879183919061076f908490610fdc565b9091555050600181018590556002810182905561078b876109d1565b866001600160a01b03167f79f50eca0b5271175be5e46142efe86fd60e7de6fa43d1eb775db9247843ff49826003015483600401546040516107d7929190918252602082015260400190565b60405180910390a250506107ea60018055565b5050505050565b6001600160a01b03811660009081526004602090815260409182902080548351818402810184019094528084526060939283018282801561085157602002820191906000526020600020905b81548152602001906001019080831161083d575b50505050509050919050565b60008281526020819052604090206001015461087881610882565b6105158383610913565b61088c8133610c6b565b50565b610899828261061f565b610599576000828152602081815260408083206001600160a01b03851684529091529020805460ff191660011790556108cf3390565b6001600160a01b0316816001600160a01b0316837f2f8788117e7eff1d82e926ec794901d17c78024a50270940304540a733656f0d60405160405180910390a45050565b61091d828261061f565b15610599576000828152602081815260408083206001600160a01b0385168085529252808320805460ff1916905551339285917ff6391f5c32d9c69d2a47ea670b442974b53935d1edc7fd64eb21e047a839171b9190a45050565b6002600154036109ca5760405162461bcd60e51b815260206004820152601f60248201527f5265656e7472616e637947756172643a207265656e7472616e742063616c6c006044820152606401610586565b6002600155565b6001600160a01b038116600090815260026020908152604080832060049092529091208054610a375760405162461bcd60e51b81526020600482015260126024820152714e6f20686973746f726963616c206461746160701b6044820152606401610586565b60008060008060005b8554811015610b4d576001600160a01b038816600090815260036020526040812087548290899085908110610a7757610a77610fef565b90600052602060002001548152602001908152602001600020905060006001838980549050610aa69190611005565b610ab09190611005565b610abb90605f6110fc565b9050808260010154610acd9190611108565b610ad79087610fdc565b9550610ae38188610fdc565b96508215610b34578382600101541115610b1857838260010154610b079190611005565b610b119086610fdc565b9450610b34565b6001820154610b279085611005565b610b319086610fdc565b94505b5060010154915080610b458161111f565b915050610a40565b508315610b6457610b5e8484611138565b60048701555b8454600090600110610b77576064610bb1565b8554610b8590600190611005565b8754610b919190611108565b610b9c606485611108565b610ba69190611138565b610bb1906064611005565b905060006201518087600081548110610bcc57610bcc610fef565b906000526020600020015442610be29190611005565b610bec9190611138565b87549091508190610bff90606490611108565b610c099190611138565b60068901819055606490610c1e90601e611108565b610c2984601e611108565b8a54610c36906028611108565b610c409190610fdc565b610c4a9190610fdc565b610c549190611138565b600389015550600590960195909555505050505050565b610c75828261061f565b61059957610c8281610cc4565b610c8d836020610cd6565b604051602001610c9e92919061117e565b60408051601f198184030181529082905262461bcd60e51b8252610586916004016111f3565b60606104416001600160a01b03831660145b60606000610ce5836002611108565b610cf0906002610fdc565b67ffffffffffffffff811115610d0857610d08611226565b6040519080825280601f01601f191660200182016040528015610d32576020820181803683370190505b509050600360fc1b81600081518110610d4d57610d4d610fef565b60200101906001600160f81b031916908160001a905350600f60fb1b81600181518110610d7c57610d7c610fef565b60200101906001600160f81b031916908160001a9053506000610da0846002611108565b610dab906001610fdc565b90505b6001811115610e23576f181899199a1a9b1b9c1cb0b131b232b360811b85600f1660108110610ddf57610ddf610fef565b1a60f81b828281518110610df557610df5610fef565b60200101906001600160f81b031916908160001a90535060049490941c93610e1c8161123c565b9050610dae565b508315610e725760405162461bcd60e51b815260206004820181905260248201527f537472696e67733a20686578206c656e67746820696e73756666696369656e746044820152606401610586565b9392505050565b80356001600160a01b0381168114610e9057600080fd5b919050565b60008060408385031215610ea857600080fd5b610eb183610e79565b946020939093013593505050565b600060208284031215610ed157600080fd5b81356001600160e01b031981168114610e7257600080fd5b600060208284031215610efb57600080fd5b610e7282610e79565b600060208284031215610f1657600080fd5b5035919050565b60008060408385031215610f3057600080fd5b82359150610f4060208401610e79565b90509250929050565b60008060008060808587031215610f5f57600080fd5b610f6885610e79565b966020860135965060408601359560600135945092505050565b6020808252825182820181905260009190848201906040850190845b81811015610fba57835183529284019291840191600101610f9e565b50909695505050505050565b634e487b7160e01b600052601160045260246000fd5b8082018082111561044157610441610fc6565b634e487b7160e01b600052603260045260246000fd5b8181038181111561044157610441610fc6565b600181815b8085111561105357816000190482111561103957611039610fc6565b8085161561104657918102915b93841c939080029061101d565b509250929050565b60008261106a57506001610441565b8161107757506000610441565b816001811461108d5760028114611097576110b3565b6001915050610441565b60ff8411156110a8576110a8610fc6565b50506001821b610441565b5060208310610133831016604e8410600b84101617156110d6575081810a610441565b6110e08383611018565b80600019048211156110f4576110f4610fc6565b029392505050565b6000610e72838361105b565b808202811582820484141761044157610441610fc6565b60006001820161113157611131610fc6565b5060010190565b60008261115557634e487b7160e01b600052601260045260246000fd5b500490565b60005b8381101561117557818101518382015260200161115d565b50506000910152565b7f416363657373436f6e74726f6c3a206163636f756e74200000000000000000008152600083516111b681601785016020880161115a565b7001034b99036b4b9b9b4b733903937b6329607d1b60179184019182015283516111e781602884016020880161115a565b01602801949350505050565b602081526000825180602084015261121281604085016020870161115a565b601f01601f19169190910160400192915050565b634e487b7160e01b600052604160045260246000fd5b60008161124b5761124b610fc6565b50600019019056fea2646970667358221220aeff4dc3454bd0d0fb931e775193915e0d57c0632129b7423855c7b47d4e101a64736f6c63430008130033",
  "linkReferences": {},
  "deployedLinkReferences": {}
}