{"contracts/YieldVerifier.sol":{"YieldVerifier":{"abi":[{"inputs":[],"stateMutability":"nonpayable","type":"constructor"},{"anonymous":false,"inputs":[{"indexed":true,"internalType":"address","name":"strategy","type":"address"},{"indexed":false,"internalType":"uint256","name":"performanceScore","type":"uint256"},{"indexed":false,"internalType":"uint256","name":"benchmarkYield","type":"uint256"}],"name":"MetricsUpdated","type":"event"},{"anonymous":false,"inputs":[{"indexed":true,"internalType":"bytes32","name":"role","type":"bytes32"},{"indexed":true,"internalType":"bytes32","name":"previousAdminRole","type":"bytes32"},{"indexed":true,"internalType":"bytes32","name":"newAdminRole","type":"bytes32"}],"name":"RoleAdminChanged","type":"event"},{"anonymous":false,"inputs":[{"indexed":true,"internalType":"bytes32","name":"role","type":"bytes32"},{"indexed":true,"internalType":"address","name":"account","type":"address"},{"indexed":true,"internalType":"address","name":"sender","type":"address"}],"name":"RoleGranted","type":"event"},{"anonymous":false,"inputs":[{"indexed":true,"internalType":"bytes32","name":"role","type":"bytes32"},{"indexed":true,"internalType":"address","name":"account","type":"address"},{"indexed":true,"internalType":"address","name":"sender","type":"address"}],"name":"RoleRevoked","type":"event"},{"inputs":[],"name":"DECAY_FACTOR","outputs":[{"internalType":"uint256","name":"","type":"uint256"}],"stateMutability":"view","type":"function"},{"inputs":[],"name":"DEFAULT_ADMIN_ROLE","outputs":[{"internalType":"bytes32","name":"","type":"bytes32"}],"stateMutability":"view","type":"function"},{"inputs":[],"name":"MINIMUM_HISTORY_PERIOD","outputs":[{"internalType":"uint256","name":"","type":"uint256"}],"stateMutability":"view","type":"function"},{"inputs":[],"name":"PERFORMANCE_SCALE","outputs":[{"internalType":"uint256","name":"","type":"uint256"}],"stateMutability":"view","type":"function"},{"inputs":[],"name":"VERIFIER_ROLE","outputs":[{"internalType":"bytes32","name":"","type":"bytes32"}],"stateMutability":"view","type":"function"},{"inputs":[{"internalType":"address","name":"strategy","type":"address"},{"internalType":"uint256","name":"timestamp","type":"uint256"}],"name":"getHistoricalData","outputs":[{"components":[{"internalType":"uint256","name":"timestamp","type":"uint256"},{"internalType":"uint256","name":"yield","type":"uint256"},{"internalType":"uint256","name":"depositAmount","type":"uint256"},{"internalType":"uint256","name":"withdrawalAmount","type":"uint256"}],"internalType":"struct YieldVerifier.HistoricalData","name":"","type":"tuple"}],"stateMutability":"view","type":"function"},{"inputs":[{"internalType":"bytes32","name":"role","type":"bytes32"}],"name":"getRoleAdmin","outputs":[{"internalType":"bytes32","name":"","type":"bytes32"}],"stateMutability":"view","type":"function"},{"inputs":[{"internalType":"address","name":"strategy","type":"address"}],"name":"getStrategyMetrics","outputs":[{"components":[{"internalType":"uint256","name":"totalYield","type":"uint256"},{"internalType":"uint256","name":"depositAmount","type":"uint256"},{"internalType":"uint256","name":"lastUpdateTimestamp","type":"uint256"},{"internalType":"uint256","name":"performanceScore","type":"uint256"},{"internalType":"uint256","name":"benchmarkYield","type":"uint256"},{"internalType":"uint256","name":"volatility","type":"uint256"},{"internalType":"uint256","name":"uptime","type":"uint256"}],"internalType":"struct YieldVerifier.StrategyMetrics","name":"","type":"tuple"}],"stateMutability":"view","type":"function"},{"inputs":[{"internalType":"address","name":"strategy","type":"address"}],"name":"getStrategyTimestamps","outputs":[{"internalType":"uint256[]","name":"","type":"uint256[]"}],"stateMutability":"view","type":"function"},{"inputs":[{"internalType":"bytes32","name":"role","type":"bytes32"},{"internalType":"address","name":"account","type":"address"}],"name":"grantRole","outputs":[],"stateMutability":"nonpayable","type":"function"},{"inputs":[{"internalType":"bytes32","name":"role","type":"bytes32"},{"internalType":"address","name":"account","type":"address"}],"name":"hasRole","outputs":[{"internalType":"bool","name":"","type":"bool"}],"stateMutability":"view","type":"function"},{"inputs":[{"internalType":"address","name":"","type":"address"},{"internalType":"uint256","name":"","type":"uint256"}],"name":"historicalData","outputs":[{"internalType":"uint256","name":"timestamp","type":"uint256"},{"internalType":"uint256","name":"yield","type":"uint256"},{"internalType":"uint256","name":"depositAmount","type":"uint256"},{"internalType":"uint256","name":"withdrawalAmount","type":"uint256"}],"stateMutability":"view","type":"function"},{"inputs":[{"internalType":"bytes32","name":"role","type":"bytes32"},{"internalType":"address","name":"account","type":"address"}],"name":"renounceRole","outputs":[],"stateMutability":"nonpayable","type":"function"},{"inputs":[{"internalType":"bytes32","name":"role","type":"bytes32"},{"internalType":"address","name":"account","type":"address"}],"name":"revokeRole","outputs":[],"stateMutability":"nonpayable","type":"function"},{"inputs":[{"internalType":"address","name":"","type":"address"}],"name":"strategyMetrics","outputs":[{"internalType":"uint256","name":"totalYield","type":"uint256"},{"internalType":"uint256","name":"depositAmount","type":"uint256"},{"internalType":"uint256","name":"lastUpdateTimestamp","type":"uint256"},{"internalType":"uint256","name":"performanceScore","type":"uint256"},{"internalType":"uint256","name":"benchmarkYield","type":"uint256"},{"internalType":"uint256","name":"volatility","type":"uint256"},{"internalType":"uint256","name":"uptime","type":"uint256"}],"stateMutability":"view","type":"function"},{"inputs":[{"internalType":"address","name":"","type":"address"},{"internalType":"uint256","name":"","type":"uint256"}],"name":"strategyTimestamps","outputs":[{"internalType":"uint256","name":"","type":"uint256"}],"stateMutability":"view","type":"function"},{"inputs":[{"internalType":"bytes4","name":"interfaceId","type":"bytes4"}],"name":"supportsInterface","outputs":[{"internalType":"bool","name":"","type":"bool"}],"stateMutability":"view","type":"function"},{"inputs":[{"internalType":"address","name":"strategy","type":"address"},{"internalType":"uint256","name":"yield","type":"uint256"},{"internalType":"uint256","name":"depositAmount","type":"uint256"},{"internalType":"uint256","name":"withdrawalAmount","type":"uint256"}],"name":"updateStrategyData","outputs":[],"stateMutability":"nonpayable","type":"function"}],"evm":{"bytecode":{"linkReferences":{},"object":"608060405234801561001057600080fd5b506001805561002060003361004f565b61004a7f0ce23c3e399818cfee81a7ab0880f714e53d7672b08df0fa62f2843416e1ea093361004f565b6100fb565b610059828261005d565b5050565b6000828152602081815260408083206001600160a01b038516845290915290205460ff16610059576000828152602081815260408083206001600160a01b03851684529091529020805460ff191660011790556100b73390565b6001600160a01b0316816001600160a01b0316837f2f8788117e7eff1d82e926ec794901d17c78024a50270940304540a733656f0d60405160405180910390a45050565b6112898061010a6000396000f3fe608060405234801561001057600080fd5b50600436106101165760003560e01c8063ad6e8cda116100a2578063da4b81d911610071578063da4b81d91461033f578063dcd898fa1461039e578063e08eae5f146103a6578063e7705db6146103ae578063ffe554e2146103d557600080fd5b8063ad6e8cda14610279578063b020b9e71461028c578063b6e85026146102ac578063d547741f1461032c57600080fd5b80632f2ff15d116100e95780632f2ff15d146101f057806336568abe146102055780637e58174d1461021857806391d148541461025e578063a217fddf1461027157600080fd5b806301fc7f461461011b57806301ffc9a7146101415780630bd6b07014610164578063248a9ca3146101cd575b600080fd5b61012e610129366004610e95565b6103df565b6040519081526020015b60405180910390f35b61015461014f366004610ebf565b610410565b6040519015158152602001610138565b610177610172366004610ee9565b610447565b6040516101389190600060e082019050825182526020830151602083015260408301516040830152606083015160608301526080830151608083015260a083015160a083015260c083015160c083015292915050565b61012e6101db366004610f04565b60009081526020819052604090206001015490565b6102036101fe366004610f1d565b6104f0565b005b610203610213366004610f1d565b61051a565b61022b610226366004610e95565b61059d565b60405161013891908151815260208083015190820152604080830151908201526060918201519181019190915260800190565b61015461026c366004610f1d565b61061f565b61012e600081565b610203610287366004610f49565b610648565b61029f61029a366004610ee9565b6107f1565b6040516101389190610f82565b6102f76102ba366004610ee9565b6002602081905260009182526040909120805460018201549282015460038301546004840154600585015460069095015493959492939192909187565b604080519788526020880196909652948601939093526060850191909152608084015260a083015260c082015260e001610138565b61020361033a366004610f1d565b61085d565b61037e61034d366004610e95565b6003602081815260009384526040808520909152918352912080546001820154600283015492909301549092919084565b604080519485526020850193909352918301526060820152608001610138565b61012e606481565b61012e605f81565b61012e7f0ce23c3e399818cfee81a7ab0880f714e53d7672b08df0fa62f2843416e1ea0981565b61012e62ed4e0081565b600460205281600052604060002081815481106103fb57600080fd5b90600052602060002001600091509150505481565b60006001600160e01b03198216637965db0b60e01b148061044157506301ffc9a760e01b6001600160e01b03198316145b92915050565b6104876040518060e00160405280600081526020016000815260200160008152602001600081526020016000815260200160008152602001600081525090565b506001600160a01b0316600090815260026020818152604092839020835160e0810185528154815260018201549281019290925291820154928101929092526003810154606083015260048101546080830152600581015460a08301526006015460c082015290565b60008281526020819052604090206001015461050b81610882565b610515838361088f565b505050565b6001600160a01b038116331461058f5760405162461bcd60e51b815260206004820152602f60248201527f416363657373436f6e74726f6c3a2063616e206f6e6c792072656e6f756e636560448201526e103937b632b9903337b91039b2b63360891b60648201526084015b60405180910390fd5b6105998282610913565b5050565b6105c86040518060800160405280600081526020016000815260200160008152602001600081525090565b506001600160a01b0382166000908152600360208181526040808420858552825292839020835160808101855281548152600182015492810192909252600281015493820193909352910154606082015292915050565b6000918252602082815260408084206001600160a01b0393909316845291905290205460ff1690565b7f0ce23c3e399818cfee81a7ab0880f714e53d7672b08df0fa62f2843416e1ea0961067281610882565b61067a610978565b6001600160a01b0385166106d05760405162461bcd60e51b815260206004820152601860248201527f496e76616c6964207374726174656779206164647265737300000000000000006044820152606401610586565b60408051608081018252428082526020808301888152838501888152606085018881526001600160a01b038c166000818152600380875289822088835287528982209851895594516001808a019190915593516002808a0191909155925197909401969096558583526004845286832080549283018155835283832090910184905593815292905291812080549091879183919061076f908490610fdc565b9091555050600181018590556002810182905561078b876109d1565b866001600160a01b03167f79f50eca0b5271175be5e46142efe86fd60e7de6fa43d1eb775db9247843ff49826003015483600401546040516107d7929190918252602082015260400190565b60405180910390a250506107ea60018055565b5050505050565b6001600160a01b03811660009081526004602090815260409182902080548351818402810184019094528084526060939283018282801561085157602002820191906000526020600020905b81548152602001906001019080831161083d575b50505050509050919050565b60008281526020819052604090206001015461087881610882565b6105158383610913565b61088c8133610c6b565b50565b610899828261061f565b610599576000828152602081815260408083206001600160a01b03851684529091529020805460ff191660011790556108cf3390565b6001600160a01b0316816001600160a01b0316837f2f8788117e7eff1d82e926ec794901d17c78024a50270940304540a733656f0d60405160405180910390a45050565b61091d828261061f565b15610599576000828152602081815260408083206001600160a01b0385168085529252808320805460ff1916905551339285917ff6391f5c32d9c69d2a47ea670b442974b53935d1edc7fd64eb21e047a839171b9190a45050565b6002600154036109ca5760405162461bcd60e51b815260206004820152601f60248201527f5265656e7472616e637947756172643a207265656e7472616e742063616c6c006044820152606401610586565b6002600155565b6001600160a01b038116600090815260026020908152604080832060049092529091208054610a375760405162461bcd60e51b81526020600482015260126024820152714e6f20686973746f726963616c206461746160701b6044820152606401610586565b60008060008060005b8554811015610b4d576001600160a01b038816600090815260036020526040812087548290899085908110610a7757610a77610fef565b90600052602060002001548152602001908152602001600020905060006001838980549050610aa69190611005565b610ab09190611005565b610abb90605f6110fc565b9050808260010154610acd9190611108565b610ad79087610fdc565b9550610ae38188610fdc565b96508215610b34578382600101541115610b1857838260010154610b079190611005565b610b119086610fdc565b9450610b34565b6001820154610b279085611005565b610b319086610fdc565b94505b5060010154915080610b458161111f565b915050610a40565b508315610b6457610b5e8484611138565b60048701555b8454600090600110610b77576064610bb1565b8554610b8590600190611005565b8754610b919190611108565b610b9c606485611108565b610ba69190611138565b610bb1906064611005565b905060006201518087600081548110610bcc57610bcc610fef565b906000526020600020015442610be29190611005565b610bec9190611138565b87549091508190610bff90606490611108565b610c099190611138565b60068901819055606490610c1e90601e611108565b610c2984601e611108565b8a54610c36906028611108565b610c409190610fdc565b610c4a9190610fdc565b610c549190611138565b600389015550600590960195909555505050505050565b610c75828261061f565b61059957610c8281610cc4565b610c8d836020610cd6565b604051602001610c9e92919061117e565b60408051601f198184030181529082905262461bcd60e51b8252610586916004016111f3565b60606104416001600160a01b03831660145b60606000610ce5836002611108565b610cf0906002610fdc565b67ffffffffffffffff811115610d0857610d08611226565b6040519080825280601f01601f191660200182016040528015610d32576020820181803683370190505b509050600360fc1b81600081518110610d4d57610d4d610fef565b60200101906001600160f81b031916908160001a905350600f60fb1b81600181518110610d7c57610d7c610fef565b60200101906001600160f81b031916908160001a9053506000610da0846002611108565b610dab906001610fdc565b90505b6001811115610e23576f181899199a1a9b1b9c1cb0b131b232b360811b85600f1660108110610ddf57610ddf610fef565b1a60f81b828281518110610df557610df5610fef565b60200101906001600160f81b031916908160001a90535060049490941c93610e1c8161123c565b9050610dae565b508315610e725760405162461bcd60e51b815260206004820181905260248201527f537472696e67733a20686578206c656e67746820696e73756666696369656e746044820152606401610586565b9392505050565b80356001600160a01b0381168114610e9057600080fd5b919050565b60008060408385031215610ea857600080fd5b610eb183610e79565b946020939093013593505050565b600060208284031215610ed157600080fd5b81356001600160e01b031981168114610e7257600080fd5b600060208284031215610efb57600080fd5b610e7282610e79565b600060208284031215610f1657600080fd5b5035919050565b60008060408385031215610f3057600080fd5b82359150610f4060208401610e79565b90509250929050565b60008060008060808587031215610f5f57600080fd5b610f6885610e79565b966020860135965060408601359560600135945092505050565b6020808252825182820181905260009190848201906040850190845b81811015610fba57835183529284019291840191600101610f9e565b50909695505050505050565b634e487b7160e01b600052601160045260246000fd5b8082018082111561044157610441610fc6565b634e487b7160e01b600052603260045260246000fd5b8181038181111561044157610441610fc6565b600181815b8085111561105357816000190482111561103957611039610fc6565b8085161561104657918102915b93841c939080029061101d565b509250929050565b60008261106a57506001610441565b8161107757506000610441565b816001811461108d5760028114611097576110b3565b6001915050610441565b60ff8411156110a8576110a8610fc6565b50506001821b610441565b5060208310610133831016604e8410600b84101617156110d6575081810a610441565b6110e08383611018565b80600019048211156110f4576110f4610fc6565b029392505050565b6000610e72838361105b565b808202811582820484141761044157610441610fc6565b60006001820161113157611131610fc6565b5060010190565b60008261115557634e487b7160e01b600052601260045260246000fd5b500490565b60005b8381101561117557818101518382015260200161115d565b50506000910152565b7f416363657373436f6e74726f6c3a206163636f756e74200000000000000000008152600083516111b681601785016020880161115a565b7001034b99036b4b9b9b4b733903937b6329607d1b60179184019182015283516111e781602884016020880161115a565b01602801949350505050565b602081526000825180602084015261121281604085016020870161115a565b601f01601f19169190910160400192915050565b634e487b7160e01b600052604160045260246000fd5b60008161124b5761124b610fc6565b50600019019056fea2646970667358221220aeff4dc3454bd0d0fb931e775193915e0d57c0632129b7423855c7b47d4e101a64736f6c63430008130033","opcodes":"PUSH1 0x80 PUSH1 0x40 MSTORE CALLVALUE DUP1 ISZERO PUSH2 0x10 JUMPI PUSH1 0x0 DUP1 REVERT JUMPDEST POP PUSH1 0x1 DUP1 SSTORE PUSH2 0x20 PUSH1 0x0 CALLER PUSH2 0x4F JUMP JUMPDEST PUSH2 0x4A PUSH32 0xCE23C3E399818CFEE81A7AB0880F714E53D7672B08DF0FA62F2843416E1EA09 CALLER PUSH2 0x4F JUMP JUMPDEST PUSH2 0xFB JUMP JUMPDEST PUSH2 0x59 DUP3 DUP3 PUSH2 0x5D JUMP JUMPDEST POP POP JUMP JUMPDEST PUSH1 0x0 DUP3 DUP2 MSTORE PUSH1 0x20 DUP2 DUP2 MSTORE PUSH1 0x40 DUP1 DUP4 KECCAK256 PUSH1 0x1 PUSH1 0x1 PUSH1 0xA0 SHL SUB DUP6 AND DUP5 MSTORE SWAP1 SWAP2 MSTORE SWAP1 KECCAK256 SLOAD PUSH1 0xFF AND PUSH2 0x59 JUMPI PUSH1 0x0 DUP3 DUP2 MSTORE PUSH1 0x20 DUP2 DUP2 MSTORE PUSH1 0x40 DUP1 DUP4 KECCAK256 PUSH1 0x1 PUSH1 0x1 PUSH1 0xA0 SHL SUB DUP6 AND DUP5 MSTORE SWAP1 SWAP2 MSTORE SWAP1 KECCAK256 DUP1 SLOAD PUSH1 0xFF NOT AND PUSH1 0x1 OR SWAP1 SSTORE PUSH2 0xB7 CALLER SWAP1 JUMP JUMPDEST PUSH1 0x1 PUSH1 0x1 PUSH1 0xA0 SHL SUB AND DUP2 PUSH1 0x1 PUSH1 0x1 PUSH1 0xA0 SHL SUB AND DUP4 PUSH32 0x2F8788117E7EFF1D82E926EC794901D17C78024A50270940304540A733656F0D PUSH1 0x40 MLOAD PUSH1 0x40 MLOAD DUP1 SWAP2 SUB SWAP1 LOG4 POP POP JUMP JUMPDEST PUSH2 0x1289 DUP1 PUSH2 0x10A PUSH1 0x0 CODECOPY PUSH1 0x0 RETURN INVALID PUSH1 0x80 PUSH1 0x40 MSTORE CALLVALUE DUP1 ISZERO PUSH2 0x10 JUMPI PUSH1 0x0 DUP1 REVERT JUMPDEST POP PUSH1 0x4 CALLDATASIZE LT PUSH2 0x116 JUMPI PUSH1 0x0 CALLDATALOAD PUSH1 0xE0 SHR DUP1 PUSH4 0xAD6E8CDA GT PUSH2 0xA2 JUMPI DUP1 PUSH4 0xDA4B81D9 GT PUSH2 0x71 JUMPI DUP1 PUSH4 0xDA4B81D9 EQ PUSH2 0x33F JUMPI DUP1 PUSH4 0xDCD898FA EQ PUSH2 0x39E JUMPI DUP1 PUSH4 0xE08EAE5F EQ PUSH2 0x3A6 JUMPI DUP1 PUSH4 0xE7705DB6 EQ PUSH2 0x3AE JUMPI DUP1 PUSH4 0xFFE554E2 EQ PUSH2 0x3D5 JUMPI PUSH1 0x0 DUP1 REVERT JUMPDEST DUP1 PUSH4 0xAD6E8CDA EQ PUSH2 0x279 JUMPI DUP1 PUSH4 0xB020B9E7 EQ PUSH2 0x28C JUMPI DUP1 PUSH4 0xB6E85026 EQ PUSH2 0x2AC JUMPI DUP1 PUSH4 0xD547741F EQ PUSH2 0x32C JUMPI PUSH1 0x0 DUP1 REVERT JUMPDEST DUP1 PUSH4 0x2F2FF15D GT PUSH2 0xE9 JUMPI DUP1 PUSH4 0x2F2FF15D EQ PUSH2 0x1F0 JUMPI DUP1 PUSH4 0x36568ABE EQ PUSH2 0x205 JUMPI DUP1 PUSH4 0x7E58174D EQ PUSH2 0x218 JUMPI DUP1 PUSH4 0x91D14854 EQ PUSH2 0x25E JUMPI DUP1 PUSH4 0xA217FDDF EQ PUSH2 0x271 JUMPI PUSH1 0x0 DUP1 REVERT JUMPDEST DUP1 PUSH4 0x1FC7F46 EQ PUSH2 0x11B JUMPI DUP1 PUSH4 0x1FFC9A7 EQ PUSH2 0x141 JUMPI DUP1 PUSH4 0xBD6B070 EQ PUSH2 0x164 JUMPI DUP1 PUSH4 0x248A9CA3 EQ PUSH2 0x1CD JUMPI JUMPDEST PUSH1 0x0 DUP1 REVERT JUMPDEST PUSH2 0x12E PUSH2 0x129 CALLDATASIZE PUSH1 0x4 PUSH2 0xE95 JUMP JUMPDEST PUSH2 0x3DF JUMP JUMPDEST PUSH1 0x40 MLOAD SWAP1 DUP2 MSTORE PUSH1 0x20 ADD JUMPDEST PUSH1 0x40 MLOAD DUP1 SWAP2 SUB SWAP1 RETURN JUMPDEST PUSH2 0x154 PUSH2 0x14F CALLDATASIZE PUSH1 0x4 PUSH2 0xEBF JUMP JUMPDEST PUSH2 0x410 JUMP JUMPDEST PUSH1 0x40 MLOAD SWAP1 ISZERO ISZERO DUP2 MSTORE PUSH1 0x20 ADD PUSH2 0x138 JUMP JUMPDEST PUSH2 0x177 PUSH2 0x172 CALLDATASIZE PUSH1 0x4 PUSH2 0xEE9 JUMP JUMPDEST PUSH2 0x447 JUMP JUMPDEST PUSH1 0x40 MLOAD PUSH2 0x138 SWAP2 SWAP1 PUSH1 0x0 PUSH1 0xE0 DUP3 ADD SWAP1 POP DUP3 MLOAD DUP3 MSTORE PUSH1 0x20 DUP4 ADD MLOAD PUSH1 0x20 DUP4 ADD MSTORE PUSH1 0x40 DUP4 ADD MLOAD PUSH1 0x40 DUP4 ADD MSTORE PUSH1 0x60 DUP4 ADD MLOAD PUSH1 0x60 DUP4 ADD MSTORE PUSH1 0x80 DUP4 ADD MLOAD PUSH1 0x80 DUP4 ADD MSTORE PUSH1 0xA0 DUP4 ADD MLOAD PUSH1 0xA0 DUP4 ADD MSTORE PUSH1 0xC0 DUP4 ADD MLOAD PUSH1 0xC0 DUP4 ADD MSTORE SWAP3 SWAP2 POP POP JUMP JUMPDEST PUSH2 0x12E PUSH2 0x1DB CALLDATASIZE PUSH1 0x4 PUSH2 0xF04 JUMP JUMPDEST PUSH1 0x0 SWAP1 DUP2 MSTORE PUSH1 0x20 DUP2 SWAP1 MSTORE PUSH1 0x40 SWAP1 KECCAK256 PUSH1 0x1 ADD SLOAD SWAP1 JUMP JUMPDEST PUSH2 0x203 PUSH2 0x1FE CALLDATASIZE PUSH1 0x4 PUSH2 0xF1D JUMP JUMPDEST PUSH2 0x4F0 JUMP JUMPDEST STOP JUMPDEST PUSH2 0x203 PUSH2 0x213 CALLDATASIZE PUSH1 0x4 PUSH2 0xF1D JUMP JUMPDEST PUSH2 0x51A JUMP JUMPDEST PUSH2 0x22B PUSH2 0x226 CALLDATASIZE PUSH1 0x4 PUSH2 0xE95 JUMP JUMPDEST PUSH2 0x59D JUMP JUMPDEST PUSH1 0x40 MLOAD PUSH2 0x138 SWAP2 SWAP1 DUP2 MLOAD DUP2 MSTORE PUSH1 0x20 DUP1 DUP4 ADD MLOAD SWAP1 DUP3 ADD MSTORE PUSH1 0x40 DUP1 DUP4 ADD MLOAD SWAP1 DUP3 ADD MSTORE PUSH1 0x60 SWAP2 DUP3 ADD MLOAD SWAP2 DUP2 ADD SWAP2 SWAP1 SWAP2 MSTORE PUSH1 0x80 ADD SWAP1 JUMP JUMPDEST PUSH2 0x154 PUSH2 0x26C CALLDATASIZE PUSH1 0x4 PUSH2 0xF1D JUMP JUMPDEST PUSH2 0x61F JUMP JUMPDEST PUSH2 0x12E PUSH1 0x0 DUP2 JUMP JUMPDEST PUSH2 0x203 PUSH2 0x287 CALLDATASIZE PUSH1 0x4 PUSH2 0xF49 JUMP JUMPDEST PUSH2 0x648 JUMP JUMPDEST PUSH2 0x29F PUSH2 0x29A CALLDATASIZE PUSH1 0x4 PUSH2 0xEE9 JUMP JUMPDEST PUSH2 0x7F1 JUMP JUMPDEST PUSH1 0x40 MLOAD PUSH2 0x138 SWAP2 SWAP1 PUSH2 0xF82 JUMP JUMPDEST PUSH2 0x2F7 PUSH2 0x2BA CALLDATASIZE PUSH1 0x4 PUSH2 0xEE9 JUMP JUMPDEST PUSH1 0x2 PUSH1 0x20 DUP2 SWAP1 MSTORE PUSH1 0x0 SWAP2 DUP3 MSTORE PUSH1 0x40 SWAP1 SWAP2 KECCAK256 DUP1 SLOAD PUSH1 0x1 DUP3 ADD SLOAD SWAP3 DUP3 ADD SLOAD PUSH1 0x3 DUP4 ADD SLOAD PUSH1 0x4 DUP5 ADD SLOAD PUSH1 0x5 DUP6 ADD SLOAD PUSH1 0x6 SWAP1 SWAP6 ADD SLOAD SWAP4 SWAP6 SWAP5 SWAP3 SWAP4 SWAP2 SWAP3 SWAP1 SWAP2 DUP8 JUMP JUMPDEST PUSH1 0x40 DUP1 MLOAD SWAP8 DUP9 MSTORE PUSH1 0x20 DUP9 ADD SWAP7 SWAP1 SWAP7 MSTORE SWAP5 DUP7 ADD SWAP4 SWAP1 SWAP4 MSTORE PUSH1 0x60 DUP6 ADD SWAP2 SWAP1 SWAP2 MSTORE PUSH1 0x80 DUP5 ADD MSTORE PUSH1 0xA0 DUP4 ADD MSTORE PUSH1 0xC0 DUP3 ADD MSTORE PUSH1 0xE0 ADD PUSH2 0x138 JUMP JUMPDEST PUSH2 0x203 PUSH2 0x33A CALLDATASIZE PUSH1 0x4 PUSH2 0xF1D JUMP JUMPDEST PUSH2 0x85D JUMP JUMPDEST PUSH2 0x37E PUSH2 0x34D CALLDATASIZE PUSH1 0x4 PUSH2 0xE95 JUMP JUMPDEST PUSH1 0x3 PUSH1 0x20 DUP2 DUP2 MSTORE PUSH1 0x0 SWAP4 DUP5 MSTORE PUSH1 0x40 DUP1 DUP6 KECCAK256 SWAP1 SWAP2 MSTORE SWAP2 DUP4 MSTORE SWAP2 KECCAK256 DUP1 SLOAD PUSH1 0x1 DUP3 ADD SLOAD PUSH1 0x2 DUP4 ADD SLOAD SWAP3 SWAP1 SWAP4 ADD SLOAD SWAP1 SWAP3 SWAP2 SWAP1 DUP5 JUMP JUMPDEST PUSH1 0x40 DUP1 MLOAD SWAP5 DUP6 MSTORE PUSH1 0x20 DUP6 ADD SWAP4 SWAP1 SWAP4 MSTORE SWAP2 DUP4 ADD MSTORE PUSH1 0x60 DUP3 ADD MSTORE PUSH1 0x80 ADD PUSH2 0x138 JUMP JUMPDEST PUSH2 0x12E PUSH1 0x64 DUP2 JUMP JUMPDEST PUSH2 0x12E PUSH1 0x5F DUP2 JUMP JUMPDEST PUSH2 0x12E PUSH32 0xCE23C3E399818CFEE81A7AB0880F714E53D7672B08DF0FA62F2843416E1EA09 DUP2 JUMP JUMPDEST PUSH2 0x12E PUSH3 0xED4E00 DUP2 JUMP JUMPDEST PUSH1 0x4 PUSH1 0x20 MSTORE DUP2 PUSH1 0x0 MSTORE PUSH1 0x40 PUSH1 0x0 KECCAK256 DUP2 DUP2 SLOAD DUP2 LT PUSH2 0x3FB JUMPI PUSH1 0x0 DUP1 REVERT JUMPDEST SWAP1 PUSH1 0x0 MSTORE PUSH1 0x20 PUSH1 0x0 KECCAK256 ADD PUSH1 0x0 SWAP2 POP SWAP2 POP POP SLOAD DUP2 JUMP JUMPDEST PUSH1 0x0 PUSH1 0x1 PUSH1 0x1 PUSH1 0xE0 SHL SUB NOT DUP3 AND PUSH4 0x7965DB0B PUSH1 0xE0 SHL EQ DUP1 PUSH2 0x441 JUMPI POP PUSH4 0x1FFC9A7 PUSH1 0xE0 SHL PUSH1 0x1 PUSH1 0x1 PUSH1 0xE0 SHL SUB NOT DUP4 AND EQ JUMPDEST SWAP3 SWAP2 POP POP JUMP JUMPDEST PUSH2 0x487 PUSH1 0x40 MLOAD DUP1 PUSH1 0xE0 ADD PUSH1 0x40 MSTORE DUP1 PUSH1 0x0 DUP2 MSTORE PUSH1 0x20 ADD PUSH1 0x0 DUP2 MSTORE PUSH1 0x20 ADD PUSH1 0x0 DUP2 MSTORE PUSH1 0x20 ADD PUSH1 0x0 DUP2 MSTORE PUSH1 0x20 ADD PUSH1 0x0 DUP2 MSTORE PUSH1 0x20 ADD PUSH1 0x0 DUP2 MSTORE PUSH1 0x20 ADD PUSH1 0x0 DUP2 MSTORE POP SWAP1 JUMP JUMPDEST POP PUSH1 0x1 PUSH1 0x1 PUSH1 0xA0 SHL SUB AND PUSH1 0x0 SWAP1 DUP2 MSTORE PUSH1 0x2 PUSH1 0x20 DUP2 DUP2 MSTORE PUSH1 0x40 SWAP3 DUP4 SWAP1 KECCAK256 DUP4 MLOAD PUSH1 0xE0 DUP2 ADD DUP6 MSTORE DUP2 SLOAD DUP2 MSTORE PUSH1 0x1 DUP3 ADD SLOAD SWAP3 DUP2 ADD SWAP3 SWAP1 SWAP3 MSTORE SWAP2 DUP3 ADD SLOAD SWAP3 DUP2 ADD SWAP3 SWAP1 SWAP3 MSTORE PUSH1 0x3 DUP2 ADD SLOAD PUSH1 0x60 DUP4 ADD MSTORE PUSH1 0x4 DUP2 ADD SLOAD PUSH1 0x80 DUP4 ADD MSTORE PUSH1 0x5 DUP2 ADD SLOAD PUSH1 0xA0 DUP4 ADD MSTORE PUSH1 0x6 ADD SLOAD PUSH1 0xC0 DUP3 ADD MSTORE SWAP1 JUMP JUMPDEST PUSH1 0x0 DUP3 DUP2 MSTORE PUSH1 0x20 DUP2 SWAP1 MSTORE PUSH1 0x40 SWAP1 KECCAK256 PUSH1 0x1 ADD SLOAD PUSH2 0x50B DUP2 PUSH2 0x882 JUMP JUMPDEST PUSH2 0x515 DUP4 DUP4 PUSH2 0x88F JUMP JUMPDEST POP POP POP JUMP JUMPDEST PUSH1 0x1 PUSH1 0x1 PUSH1 0xA0 SHL SUB DUP2 AND CALLER EQ PUSH2 0x58F JUMPI PUSH1 0x40 MLOAD PUSH3 0x461BCD PUSH1 0xE5 SHL DUP2 MSTORE PUSH1 0x20 PUSH1 0x4 DUP3 ADD MSTORE PUSH1 0x2F PUSH1 0x24 DUP3 ADD MSTORE PUSH32 0x416363657373436F6E74726F6C3A2063616E206F6E6C792072656E6F756E6365 PUSH1 0x44 DUP3 ADD MSTORE PUSH15 0x103937B632B9903337B91039B2B633 PUSH1 0x89 SHL PUSH1 0x64 DUP3 ADD MSTORE PUSH1 0x84 ADD JUMPDEST PUSH1 0x40 MLOAD DUP1 SWAP2 SUB SWAP1 REVERT JUMPDEST PUSH2 0x599 DUP3 DUP3 PUSH2 0x913 JUMP JUMPDEST POP POP JUMP JUMPDEST PUSH2 0x5C8 PUSH1 0x40 MLOAD DUP1 PUSH1 0x80 ADD PUSH1 0x40 MSTORE DUP1 PUSH1 0x0 DUP2 MSTORE PUSH1 0x20 ADD PUSH1 0x0 DUP2 MSTORE PUSH1 0x20 ADD PUSH1 0x0 DUP2 MSTORE PUSH1 0x20 ADD PUSH1 0x0 DUP2 MSTORE POP SWAP1 JUMP JUMPDEST POP PUSH1 0x1 PUSH1 0x1 PUSH1 0xA0 SHL SUB DUP3 AND PUSH1 0x0 SWAP1 DUP2 MSTORE PUSH1 0x3 PUSH1 0x20 DUP2 DUP2 MSTORE PUSH1 0x40 DUP1 DUP5 KECCAK256 DUP6 DUP6 MSTORE DUP3 MSTORE SWAP3 DUP4 SWAP1 KECCAK256 DUP4 MLOAD PUSH1 0x80 DUP2 ADD DUP6 MSTORE DUP2 SLOAD DUP2 MSTORE PUSH1 0x1 DUP3 ADD SLOAD SWAP3 DUP2 ADD SWAP3 SWAP1 SWAP3 MSTORE PUSH1 0x2 DUP2 ADD SLOAD SWAP4 DUP3 ADD SWAP4 SWAP1 SWAP4 MSTORE SWAP2 ADD SLOAD PUSH1 0x60 DUP3 ADD MSTORE SWAP3 SWAP2 POP POP JUMP JUMPDEST PUSH1 0x0 SWAP2 DUP3 MSTORE PUSH1 0x20 DUP3 DUP2 MSTORE PUSH1 0x40 DUP1 DUP5 KECCAK256 PUSH1 0x1 PUSH1 0x1 PUSH1 0xA0 SHL SUB SWAP4 SWAP1 SWAP4 AND DUP5 MSTORE SWAP2 SWAP1 MSTORE SWAP1 KECCAK256 SLOAD PUSH1 0xFF AND SWAP1 JUMP JUMPDEST PUSH32 0xCE23C3E399818CFEE81A7AB0880F714E53D7672B08DF0FA62F2843416E1EA09 PUSH2 0x672 DUP2 PUSH2 0x882 JUMP JUMPDEST PUSH2 0x67A PUSH2 0x978 JUMP JUMPDEST PUSH1 0x1 PUSH1 0x1 PUSH1 0xA0 SHL SUB DUP6 AND PUSH2 0x6D0 JUMPI PUSH1 0x40 MLOAD PUSH3 0x461BCD PUSH1 0xE5 SHL DUP2 MSTORE PUSH1 0x20 PUSH1 0x4 DUP3 ADD MSTORE PUSH1 0x18 PUSH1 0x24 DUP3 ADD MSTORE PUSH32 0x496E76616C696420737472617465677920616464726573730000000000000000 PUSH1 0x44 DUP3 ADD MSTORE PUSH1 0x64 ADD PUSH2 0x586 JUMP JUMPDEST PUSH1 0x40 DUP1 MLOAD PUSH1 0x80 DUP2 ADD DUP3 MSTORE TIMESTAMP DUP1 DUP3 MSTORE PUSH1 0x20 DUP1 DUP4 ADD DUP9 DUP2 MSTORE DUP4 DUP6 ADD DUP9 DUP2 MSTORE PUSH1 0x60 DUP6 ADD DUP9 DUP2 MSTORE PUSH1 0x1 PUSH1 0x1 PUSH1 0xA0 SHL SUB DUP13 AND PUSH1 0x0 DUP2 DUP2 MSTORE PUSH1 0x3 DUP1 DUP8 MSTORE DUP10 DUP3 KECCAK256 DUP9 DUP4 MSTORE DUP8 MSTORE DUP10 DUP3 KECCAK256 SWAP9 MLOAD DUP10 SSTORE SWAP5 MLOAD PUSH1 0x1 DUP1 DUP11 ADD SWAP2 SWAP1 SWAP2 SSTORE SWAP4 MLOAD PUSH1 0x2 DUP1 DUP11 ADD SWAP2 SWAP1 SWAP2 SSTORE SWAP3 MLOAD SWAP8 SWAP1 SWAP5 ADD SWAP7 SWAP1 SWAP7 SSTORE DUP6 DUP4 MSTORE PUSH1 0x4 DUP5 MSTORE DUP7 DUP4 KECCAK256 DUP1 SLOAD SWAP3 DUP4 ADD DUP2 SSTORE DUP4 MSTORE DUP4 DUP4 KECCAK256 SWAP1 SWAP2 ADD DUP5 SWAP1 SSTORE SWAP4 DUP2 MSTORE SWAP3 SWAP1 MSTORE SWAP2 DUP2 KECCAK256 DUP1 SLOAD SWAP1 SWAP2 DUP8 SWAP2 DUP4 SWAP2 SWAP1 PUSH2 0x76F SWAP1 DUP5 SWAP1 PUSH2 0xFDC JUMP JUMPDEST SWAP1 SWAP2 SSTORE POP POP PUSH1 0x1 DUP2 ADD DUP6 SWAP1 SSTORE PUSH1 0x2 DUP2 ADD DUP3 SWAP1 SSTORE PUSH2 0x78B DUP8 PUSH2 0x9D1 JUMP JUMPDEST DUP7 PUSH1 0x1 PUSH1 0x1 PUSH1 0xA0 SHL SUB AND PUSH32 0x79F50ECA0B5271175BE5E46142EFE86FD60E7DE6FA43D1EB775DB9247843FF49 DUP3 PUSH1 0x3 ADD SLOAD DUP4 PUSH1 0x4 ADD SLOAD PUSH1 0x40 MLOAD PUSH2 0x7D7 SWAP3 SWAP2 SWAP1 SWAP2 DUP3 MSTORE PUSH1 0x20 DUP3 ADD MSTORE PUSH1 0x40 ADD SWAP1 JUMP JUMPDEST PUSH1 0x40 MLOAD DUP1 SWAP2 SUB SWAP1 LOG2 POP POP PUSH2 0x7EA PUSH1 0x1 DUP1 SSTORE JUMP JUMPDEST POP POP POP POP POP JUMP JUMPDEST PUSH1 0x1 PUSH1 0x1 PUSH1 0xA0 SHL SUB DUP2 AND PUSH1 0x0 SWAP1 DUP2 MSTORE PUSH1 0x4 PUSH1 0x20 SWAP1 DUP2 MSTORE PUSH1 0x40 SWAP2 DUP3 SWAP1 KECCAK256 DUP1 SLOAD DUP4 MLOAD DUP2 DUP5 MUL DUP2 ADD DUP5 ADD SWAP1 SWAP5 MSTORE DUP1 DUP5 MSTORE PUSH1 0x60 SWAP4 SWAP3 DUP4 ADD DUP3 DUP3 DUP1 ISZERO PUSH2 0x851 JUMPI PUSH1 0x20 MUL DUP3 ADD SWAP2 SWAP1 PUSH1 0x0 MSTORE PUSH1 0x20 PUSH1 0x0 KECCAK256 SWAP1 JUMPDEST DUP2 SLOAD DUP2 MSTORE PUSH1 0x20 ADD SWAP1 PUSH1 0x1 ADD SWAP1 DUP1 DUP4 GT PUSH2 0x83D JUMPI JUMPDEST POP POP POP POP POP SWAP1 POP SWAP2 SWAP1 POP JUMP JUMPDEST PUSH1 0x0 DUP3 DUP2 MSTORE PUSH1 0x20 DUP2 SWAP1 MSTORE PUSH1 0x40 SWAP1 KECCAK256 PUSH1 0x1 ADD SLOAD PUSH2 0x878 DUP2 PUSH2 0x882 JUMP JUMPDEST PUSH2 0x515 DUP4 DUP4 PUSH2 0x913 JUMP JUMPDEST PUSH2 0x88C DUP2 CALLER PUSH2 0xC6B JUMP JUMPDEST POP JUMP JUMPDEST PUSH2 0x899 DUP3 DUP3 PUSH2 0x61F JUMP JUMPDEST PUSH2 0x599 JUMPI PUSH1 0x0 DUP3 DUP2 MSTORE PUSH1 0x20 DUP2 DUP2 MSTORE PUSH1 0x40 DUP1 DUP4 KECCAK256 PUSH1 0x1 PUSH1 0x1 PUSH1 0xA0 SHL SUB DUP6 AND DUP5 MSTORE SWAP1 SWAP2 MSTORE SWAP1 KECCAK256 DUP1 SLOAD PUSH1 0xFF NOT AND PUSH1 0x1 OR SWAP1 SSTORE PUSH2 0x8CF CALLER SWAP1 JUMP JUMPDEST PUSH1 0x1 PUSH1 0x1 PUSH1 0xA0 SHL SUB AND DUP2 PUSH1 0x1 PUSH1 0x1 PUSH1 0xA0 SHL SUB AND DUP4 PUSH32 0x2F8788117E7EFF1D82E926EC794901D17C78024A50270940304540A733656F0D PUSH1 0x40 MLOAD PUSH1 0x40 MLOAD DUP1 SWAP2 SUB SWAP1 LOG4 POP POP JUMP JUMPDEST PUSH2 0x91D DUP3 DUP3 PUSH2 0x61F JUMP JUMPDEST ISZERO PUSH2 0x599 JUMPI PUSH1 0x0 DUP3 DUP2 MSTORE PUSH1 0x20 DUP2 DUP2 MSTORE PUSH1 0x40 DUP1 DUP4 KECCAK256 PUSH1 0x1 PUSH1 0x1 PUSH1 0xA0 SHL SUB DUP6 AND DUP1 DUP6 MSTORE SWAP3 MSTORE DUP1 DUP4 KECCAK256 DUP1 SLOAD PUSH1 0xFF NOT AND SWAP1 SSTORE MLOAD CALLER SWAP3 DUP6 SWAP2 PUSH32 0xF6391F5C32D9C69D2A47EA670B442974B53935D1EDC7FD64EB21E047A839171B SWAP2 SWAP1 LOG4 POP POP JUMP JUMPDEST PUSH1 0x2 PUSH1 0x1 SLOAD SUB PUSH2 0x9CA JUMPI PUSH1 0x40 MLOAD PUSH3 0x461BCD PUSH1 0xE5 SHL DUP2 MSTORE PUSH1 0x20 PUSH1 0x4 DUP3 ADD MSTORE PUSH1 0x1F PUSH1 0x24 DUP3 ADD MSTORE PUSH32 0x5265656E7472616E637947756172643A207265656E7472616E742063616C6C00 PUSH1 0x44 DUP3 ADD MSTORE PUSH1 0x64 ADD PUSH2 0x586 JUMP JUMPDEST PUSH1 0x2 PUSH1 0x1 SSTORE JUMP JUMPDEST PUSH1 0x1 PUSH1 0x1 PUSH1 0xA0 SHL SUB DUP2 AND PUSH1 0x0 SWAP1 DUP2 MSTORE PUSH1 0x2 PUSH1 0x20 SWAP1 DUP2 MSTORE PUSH1 0x40 DUP1 DUP4 KECCAK256 PUSH1 0x4 SWAP1 SWAP3 MSTORE SWAP1 SWAP2 KECCAK256 DUP1 SLOAD PUSH2 0xA37 JUMPI PUSH1 0x40 MLOAD PUSH3 0x461BCD PUSH1 0xE5 SHL DUP2 MSTORE PUSH1 0x20 PUSH1 0x4 DUP3 ADD MSTORE PUSH1 0x12 PUSH1 0x24 DUP3 ADD MSTORE PUSH18 0x4E6F20686973746F726963616C2064617461 PUSH1 0x70 SHL PUSH1 0x44 DUP3 ADD MSTORE PUSH1 0x64 ADD PUSH2 0x586 JUMP JUMPDEST PUSH1 0x0 DUP1 PUSH1 0x0 DUP1 PUSH1 0x0 JUMPDEST DUP6 SLOAD DUP2 LT ISZERO PUSH2 0xB4D JUMPI PUSH1 0x1 PUSH1 0x1 PUSH1 0xA0 SHL SUB DUP9 AND PUSH1 0x0 SWAP1 DUP2 MSTORE PUSH1 0x3 PUSH1 0x20 MSTORE PUSH1 0x40 DUP2 KECCAK256 DUP8 SLOAD DUP3 SWAP1 DUP10 SWAP1 DUP6 SWAP1 DUP2 LT PUSH2 0xA77 JUMPI PUSH2 0xA77 PUSH2 0xFEF JUMP JUMPDEST SWAP1 PUSH1 0x0 MSTORE PUSH1 0x20 PUSH1 0x0 KECCAK256 ADD SLOAD DUP2 MSTORE PUSH1 0x20 ADD SWAP1 DUP2 MSTORE PUSH1 0x20 ADD PUSH1 0x0 KECCAK256 SWAP1 POP PUSH1 0x0 PUSH1 0x1 DUP4 DUP10 DUP1 SLOAD SWAP1 POP PUSH2 0xAA6 SWAP2 SWAP1 PUSH2 0x1005 JUMP JUMPDEST PUSH2 0xAB0 SWAP2 SWAP1 PUSH2 0x1005 JUMP JUMPDEST PUSH2 0xABB SWAP1 PUSH1 0x5F PUSH2 0x10FC JUMP JUMPDEST SWAP1 POP DUP1 DUP3 PUSH1 0x1 ADD SLOAD PUSH2 0xACD SWAP2 SWAP1 PUSH2 0x1108 JUMP JUMPDEST PUSH2 0xAD7 SWAP1 DUP8 PUSH2 0xFDC JUMP JUMPDEST SWAP6 POP PUSH2 0xAE3 DUP2 DUP9 PUSH2 0xFDC JUMP JUMPDEST SWAP7 POP DUP3 ISZERO PUSH2 0xB34 JUMPI DUP4 DUP3 PUSH1 0x1 ADD SLOAD GT ISZERO PUSH2 0xB18 JUMPI DUP4 DUP3 PUSH1 0x1 ADD SLOAD PUSH2 0xB07 SWAP2 SWAP1 PUSH2 0x1005 JUMP JUMPDEST PUSH2 0xB11 SWAP1 DUP7 PUSH2 0xFDC JUMP JUMPDEST SWAP5 POP PUSH2 0xB34 JUMP JUMPDEST PUSH1 0x1 DUP3 ADD SLOAD PUSH2 0xB27 SWAP1 DUP6 PUSH2 0x1005 JUMP JUMPDEST PUSH2 0xB31 SWAP1 DUP7 PUSH2 0xFDC JUMP JUMPDEST SWAP5 POP JUMPDEST POP PUSH1 0x1 ADD SLOAD SWAP2 POP DUP1 PUSH2 0xB45 DUP2 PUSH2 0x111F JUMP JUMPDEST SWAP2 POP POP PUSH2 0xA40 JUMP JUMPDEST POP DUP4 ISZERO PUSH2 0xB64 JUMPI PUSH2 0xB5E DUP5 DUP5 PUSH2 0x1138 JUMP JUMPDEST PUSH1 0x4 DUP8 ADD SSTORE JUMPDEST DUP5 SLOAD PUSH1 0x0 SWAP1 PUSH1 0x1 LT PUSH2 0xB77 JUMPI PUSH1 0x64 PUSH2 0xBB1 JUMP JUMPDEST DUP6 SLOAD PUSH2 0xB85 SWAP1 PUSH1 0x1 SWAP1 PUSH2 0x1005 JUMP JUMPDEST DUP8 SLOAD PUSH2 0xB91 SWAP2 SWAP1 PUSH2 0x1108 JUMP JUMPDEST PUSH2 0xB9C PUSH1 0x64 DUP6 PUSH2 0x1108 JUMP JUMPDEST PUSH2 0xBA6 SWAP2 SWAP1 PUSH2 0x1138 JUMP JUMPDEST PUSH2 0xBB1 SWAP1 PUSH1 0x64 PUSH2 0x1005 JUMP JUMPDEST SWAP1 POP PUSH1 0x0 PUSH3 0x15180 DUP8 PUSH1 0x0 DUP2 SLOAD DUP2 LT PUSH2 0xBCC JUMPI PUSH2 0xBCC PUSH2 0xFEF JUMP JUMPDEST SWAP1 PUSH1 0x0 MSTORE PUSH1 0x20 PUSH1 0x0 KECCAK256 ADD SLOAD TIMESTAMP PUSH2 0xBE2 SWAP2 SWAP1 PUSH2 0x1005 JUMP JUMPDEST PUSH2 0xBEC SWAP2 SWAP1 PUSH2 0x1138 JUMP JUMPDEST DUP8 SLOAD SWAP1 SWAP2 POP DUP2 SWAP1 PUSH2 0xBFF SWAP1 PUSH1 0x64 SWAP1 PUSH2 0x1108 JUMP JUMPDEST PUSH2 0xC09 SWAP2 SWAP1 PUSH2 0x1138 JUMP JUMPDEST PUSH1 0x6 DUP10 ADD DUP2 SWAP1 SSTORE PUSH1 0x64 SWAP1 PUSH2 0xC1E SWAP1 PUSH1 0x1E PUSH2 0x1108 JUMP JUMPDEST PUSH2 0xC29 DUP5 PUSH1 0x1E PUSH2 0x1108 JUMP JUMPDEST DUP11 SLOAD PUSH2 0xC36 SWAP1 PUSH1 0x28 PUSH2 0x1108 JUMP JUMPDEST PUSH2 0xC40 SWAP2 SWAP1 PUSH2 0xFDC JUMP JUMPDEST PUSH2 0xC4A SWAP2 SWAP1 PUSH2 0xFDC JUMP JUMPDEST PUSH2 0xC54 SWAP2 SWAP1 PUSH2 0x1138 JUMP JUMPDEST PUSH1 0x3 DUP10 ADD SSTORE POP PUSH1 0x5 SWAP1 SWAP7 ADD SWAP6 SWAP1 SWAP6 SSTORE POP POP POP POP POP POP JUMP JUMPDEST PUSH2 0xC75 DUP3 DUP3 PUSH2 0x61F JUMP JUMPDEST PUSH2 0x599 JUMPI PUSH2 0xC82 DUP2 PUSH2 0xCC4 JUMP JUMPDEST PUSH2 0xC8D DUP4 PUSH1 0x20 PUSH2 0xCD6 JUMP JUMPDEST PUSH1 0x40 MLOAD PUSH1 0x20 ADD PUSH2 0xC9E SWAP3 SWAP2 SWAP1 PUSH2 0x117E JUMP JUMPDEST PUSH1 0x40 DUP1 MLOAD PUSH1 0x1F NOT DUP2 DUP5 SUB ADD DUP2 MSTORE SWAP1 DUP3 SWAP1 MSTORE PUSH3 0x461BCD PUSH1 0xE5 SHL DUP3 MSTORE PUSH2 0x586 SWAP2 PUSH1 0x4 ADD PUSH2 0x11F3 JUMP JUMPDEST PUSH1 0x60 PUSH2 0x441 PUSH1 0x1 PUSH1 0x1 PUSH1 0xA0 SHL SUB DUP4 AND PUSH1 0x14 JUMPDEST PUSH1 0x60 PUSH1 0x0 PUSH2 0xCE5 DUP4 PUSH1 0x2 PUSH2 0x1108 JUMP JUMPDEST PUSH2 0xCF0 SWAP1 PUSH1 0x2 PUSH2 0xFDC JUMP JUMPDEST PUSH8 0xFFFFFFFFFFFFFFFF DUP2 GT ISZERO PUSH2 0xD08 JUMPI PUSH2 0xD08 PUSH2 0x1226 JUMP JUMPDEST PUSH1 0x40 MLOAD SWAP1 DUP1 DUP3 MSTORE DUP1 PUSH1 0x1F ADD PUSH1 0x1F NOT AND PUSH1 0x20 ADD DUP3 ADD PUSH1 0x40 MSTORE DUP1 ISZERO PUSH2 0xD32 JUMPI PUSH1 0x20 DUP3 ADD DUP2 DUP1 CALLDATASIZE DUP4 CALLDATACOPY ADD SWAP1 POP JUMPDEST POP SWAP1 POP PUSH1 0x3 PUSH1 0xFC SHL DUP2 PUSH1 0x0 DUP2 MLOAD DUP2 LT PUSH2 0xD4D JUMPI PUSH2 0xD4D PUSH2 0xFEF JUMP JUMPDEST PUSH1 0x20 ADD ADD SWAP1 PUSH1 0x1 PUSH1 0x1 PUSH1 0xF8 SHL SUB NOT AND SWAP1 DUP2 PUSH1 0x0 BYTE SWAP1 MSTORE8 POP PUSH1 0xF PUSH1 0xFB SHL DUP2 PUSH1 0x1 DUP2 MLOAD DUP2 LT PUSH2 0xD7C JUMPI PUSH2 0xD7C PUSH2 0xFEF JUMP JUMPDEST PUSH1 0x20 ADD ADD SWAP1 PUSH1 0x1 PUSH1 0x1 PUSH1 0xF8 SHL SUB NOT AND SWAP1 DUP2 PUSH1 0x0 BYTE SWAP1 MSTORE8 POP PUSH1 0x0 PUSH2 0xDA0 DUP5 PUSH1 0x2 PUSH2 0x1108 JUMP JUMPDEST PUSH2 0xDAB SWAP1 PUSH1 0x1 PUSH2 0xFDC JUMP JUMPDEST SWAP1 POP JUMPDEST PUSH1 0x1 DUP2 GT ISZERO PUSH2 0xE23 JUMPI PUSH16 0x181899199A1A9B1B9C1CB0B131B232B3 PUSH1 0x81 SHL DUP6 PUSH1 0xF AND PUSH1 0x10 DUP2 LT PUSH2 0xDDF JUMPI PUSH2 0xDDF PUSH2 0xFEF JUMP JUMPDEST BYTE PUSH1 0xF8 SHL DUP3 DUP3 DUP2 MLOAD DUP2 LT PUSH2 0xDF5 JUMPI PUSH2 0xDF5 PUSH2 0xFEF JUMP JUMPDEST PUSH1 0x20 ADD ADD SWAP1 PUSH1 0x1 PUSH1 0x1 PUSH1 0xF8 SHL SUB NOT AND SWAP1 DUP2 PUSH1 0x0 BYTE SWAP1 MSTORE8 POP PUSH1 0x4 SWAP5 SWAP1 SWAP5 SHR SWAP4 PUSH2 0xE1C DUP2 PUSH2 0x123C JUMP JUMPDEST SWAP1 POP PUSH2 0xDAE JUMP JUMPDEST POP DUP4 ISZERO PUSH2 0xE72 JUMPI PUSH1 0x40 MLOAD PUSH3 0x461BCD PUSH1 0xE5 SHL DUP2 MSTORE PUSH1 0x20 PUSH1 0x4 DUP3 ADD DUP2 SWAP1 MSTORE PUSH1 0x24 DUP3 ADD MSTORE PUSH32 0x537472696E67733A20686578206C656E67746820696E73756666696369656E74 PUSH1 0x44 DUP3 ADD MSTORE PUSH1 0x64 ADD PUSH2 0x586 JUMP JUMPDEST SWAP4 SWAP3 POP POP POP JUMP JUMPDEST DUP1 CALLDATALOAD PUSH1 0x1 PUSH1 0x1 PUSH1 0xA0 SHL SUB DUP2 AND DUP2 EQ PUSH2 0xE90 JUMPI PUSH1 0x0 DUP1 REVERT JUMPDEST SWAP2 SWAP1 POP JUMP JUMPDEST PUSH1 0x0 DUP1 PUSH1 0x40 DUP4 DUP6 SUB SLT ISZERO PUSH2 0xEA8 JUMPI PUSH1 0x0 DUP1 REVERT JUMPDEST PUSH2 0xEB1 DUP4 PUSH2 0xE79 JUMP JUMPDEST SWAP5 PUSH1 0x20 SWAP4 SWAP1 SWAP4 ADD CALLDATALOAD SWAP4 POP POP POP JUMP JUMPDEST PUSH1 0x0 PUSH1 0x20 DUP3 DUP5 SUB SLT ISZERO PUSH2 0xED1 JUMPI PUSH1 0x0 DUP1 REVERT JUMPDEST DUP2 CALLDATALOAD PUSH1 0x1 PUSH1 0x1 PUSH1 0xE0 SHL SUB NOT DUP2 AND DUP2 EQ PUSH2 0xE72 JUMPI PUSH1 0x0 DUP1 REVERT JUMPDEST PUSH1 0x0 PUSH1 0x20 DUP3 DUP5 SUB SLT ISZERO PUSH2 0xEFB JUMPI PUSH1 0x0 DUP1 REVERT JUMPDEST PUSH2 0xE72 DUP3 PUSH2 0xE79 JUMP JUMPDEST PUSH1 0x0 PUSH1 0x20 DUP3 DUP5 SUB SLT ISZERO PUSH2 0xF16 JUMPI PUSH1 0x0 DUP1 REVERT JUMPDEST POP CALLDATALOAD SWAP2 SWAP1 POP JUMP JUMPDEST PUSH1 0x0 DUP1 PUSH1 0x40 DUP4 DUP6 SUB SLT ISZERO PUSH2 0xF30 JUMPI PUSH1 0x0 DUP1 REVERT JUMPDEST DUP3 CALLDATALOAD SWAP2 POP PUSH2 0xF40 PUSH1 0x20 DUP5 ADD PUSH2 0xE79 JUMP JUMPDEST SWAP1 POP SWAP3 POP SWAP3 SWAP1 POP JUMP JUMPDEST PUSH1 0x0 DUP1 PUSH1 0x0 DUP1 PUSH1 0x80 DUP6 DUP8 SUB SLT ISZERO PUSH2 0xF5F JUMPI PUSH1 0x0 DUP1 REVERT JUMPDEST PUSH2 0xF68 DUP6 PUSH2 0xE79 JUMP JUMPDEST SWAP7 PUSH1 0x20 DUP7 ADD CALLDATALOAD SWAP7 POP PUSH1 0x40 DUP7 ADD CALLDATALOAD SWAP6 PUSH1 0x60 ADD CALLDATALOAD SWAP5 POP SWAP3 POP POP POP JUMP JUMPDEST PUSH1 0x20 DUP1 DUP3 MSTORE DUP3 MLOAD DUP3 DUP3 ADD DUP2 SWAP1 MSTORE PUSH1 0x0 SWAP2 SWAP1 DUP5 DUP3 ADD SWAP1 PUSH1 0x40 DUP6 ADD SWAP1 DUP5 JUMPDEST DUP2 DUP2 LT ISZERO PUSH2 0xFBA JUMPI DUP4 MLOAD DUP4 MSTORE SWAP3 DUP5 ADD SWAP3 SWAP2 DUP5 ADD SWAP2 PUSH1 0x1 ADD PUSH2 0xF9E JUMP JUMPDEST POP SWAP1 SWAP7 SWAP6 POP POP POP POP POP POP JUMP JUMPDEST PUSH4 0x4E487B71 PUSH1 0xE0 SHL PUSH1 0x0 MSTORE PUSH1 0x11 PUSH1 0x4 MSTORE PUSH1 0x24 PUSH1 0x0 REVERT JUMPDEST DUP1 DUP3 ADD DUP1 DUP3 GT ISZERO PUSH2 0x441 JUMPI PUSH2 0x441 PUSH2 0xFC6 JUMP JUMPDEST PUSH4 0x4E487B71 PUSH1 0xE0 SHL PUSH1 0x0 MSTORE PUSH1 0x32 PUSH1 0x4 MSTORE PUSH1 0x24 PUSH1 0x0 REVERT JUMPDEST DUP2 DUP2 SUB DUP2 DUP2 GT ISZERO PUSH2 0x441 JUMPI PUSH2 0x441 PUSH2 0xFC6 JUMP JUMPDEST PUSH1 0x1 DUP2 DUP2 JUMPDEST DUP1 DUP6 GT ISZERO PUSH2 0x1053 JUMPI DUP2 PUSH1 0x0 NOT DIV DUP3 GT ISZERO PUSH2 0x1039 JUMPI PUSH2 0x1039 PUSH2 0xFC6 JUMP JUMPDEST DUP1 DUP6 AND ISZERO PUSH2 0x1046 JUMPI SWAP2 DUP2 MUL SWAP2 JUMPDEST SWAP4 DUP5 SHR SWAP4 SWAP1 DUP1 MUL SWAP1 PUSH2 0x101D JUMP JUMPDEST POP SWAP3 POP SWAP3 SWAP1 POP JUMP JUMPDEST PUSH1 0x0 DUP3 PUSH2 0x106A JUMPI POP PUSH1 0x1 PUSH2 0x441 JUMP JUMPDEST DUP2 PUSH2 0x1077 JUMPI POP PUSH1 0x0 PUSH2 0x441 JUMP JUMPDEST DUP2 PUSH1 0x1 DUP2 EQ PUSH2 0x108D JUMPI PUSH1 0x2 DUP2 EQ PUSH2 0x1097 JUMPI PUSH2 0x10B3 JUMP JUMPDEST PUSH1 0x1 SWAP2 POP POP PUSH2 0x441 JUMP JUMPDEST PUSH1 0xFF DUP5 GT ISZERO PUSH2 0x10A8 JUMPI PUSH2 0x10A8 PUSH2 0xFC6 JUMP JUMPDEST POP POP PUSH1 0x1 DUP3 SHL PUSH2 0x441 JUMP JUMPDEST POP PUSH1 0x20 DUP4 LT PUSH2 0x133 DUP4 LT AND PUSH1 0x4E DUP5 LT PUSH1 0xB DUP5 LT AND OR ISZERO PUSH2 0x10D6 JUMPI POP DUP2 DUP2 EXP PUSH2 0x441 JUMP JUMPDEST PUSH2 0x10E0 DUP4 DUP4 PUSH2 0x1018 JUMP JUMPDEST DUP1 PUSH1 0x0 NOT DIV DUP3 GT ISZERO PUSH2 0x10F4 JUMPI PUSH2 0x10F4 PUSH2 0xFC6 JUMP JUMPDEST MUL SWAP4 SWAP3 POP POP POP JUMP JUMPDEST PUSH1 0x0 PUSH2 0xE72 DUP4 DUP4 PUSH2 0x105B JUMP JUMPDEST DUP1 DUP3 MUL DUP2 ISZERO DUP3 DUP3 DIV DUP5 EQ OR PUSH2 0x441 JUMPI PUSH2 0x441 PUSH2 0xFC6 JUMP JUMPDEST PUSH1 0x0 PUSH1 0x1 DUP3 ADD PUSH2 0x1131 JUMPI PUSH2 0x1131 PUSH2 0xFC6 JUMP JUMPDEST POP PUSH1 0x1 ADD SWAP1 JUMP JUMPDEST PUSH1 0x0 DUP3 PUSH2 0x1155 JUMPI PUSH4 0x4E487B71 PUSH1 0xE0 SHL PUSH1 0x0 MSTORE PUSH1 0x12 PUSH1 0x4 MSTORE PUSH1 0x24 PUSH1 0x0 REVERT JUMPDEST POP DIV SWAP1 JUMP JUMPDEST PUSH1 0x0 JUMPDEST DUP4 DUP2 LT ISZERO PUSH2 0x1175 JUMPI DUP2 DUP2 ADD MLOAD DUP4 DUP3 ADD MSTORE PUSH1 0x20 ADD PUSH2 0x115D JUMP JUMPDEST POP POP PUSH1 0x0 SWAP2 ADD MSTORE JUMP JUMPDEST PUSH32 0x416363657373436F6E74726F6C3A206163636F756E7420000000000000000000 DUP2 MSTORE PUSH1 0x0 DUP4 MLOAD PUSH2 0x11B6 DUP2 PUSH1 0x17 DUP6 ADD PUSH1 0x20 DUP9 ADD PUSH2 0x115A JUMP JUMPDEST PUSH17 0x1034B99036B4B9B9B4B733903937B6329 PUSH1 0x7D SHL PUSH1 0x17 SWAP2 DUP5 ADD SWAP2 DUP3 ADD MSTORE DUP4 MLOAD PUSH2 0x11E7 DUP2 PUSH1 0x28 DUP5 ADD PUSH1 0x20 DUP9 ADD PUSH2 0x115A JUMP JUMPDEST ADD PUSH1 0x28 ADD SWAP5 SWAP4 POP POP POP POP JUMP JUMPDEST PUSH1 0x20 DUP2 MSTORE PUSH1 0x0 DUP3 MLOAD DUP1 PUSH1 0x20 DUP5 ADD MSTORE PUSH2 0x1212 DUP2 PUSH1 0x40 DUP6 ADD PUSH1 0x20 DUP8 ADD PUSH2 0x115A JUMP JUMPDEST PUSH1 0x1F ADD PUSH1 0x1F NOT AND SWAP2 SWAP1 SWAP2 ADD PUSH1 0x40 ADD SWAP3 SWAP2 POP POP JUMP JUMPDEST PUSH4 0x4E487B71 PUSH1 0xE0 SHL PUSH1 0x0 MSTORE PUSH1 0x41 PUSH1 0x4 MSTORE PUSH1 0x24 PUSH1 0x0 REVERT JUMPDEST PUSH1 0x0 DUP2 PUSH2 0x124B JUMPI PUSH2 0x124B PUSH2 0xFC6 JUMP JUMPDEST POP PUSH1 0x0 NOT ADD SWAP1 JUMP INVALID LOG2 PUSH5 0x6970667358 0x22 SLT KECCAK256 0xAE SELFDESTRUCT 0x4D 0xC3 GASLIMIT 0x4B 0xD0 0xD0 0xFB SWAP4 0x1E PUSH24 0x5193915E0D57C0632129B7423855C7B47D4E101A64736F6C PUSH4 0x43000813 STOP CALLER "},"methodIdentifiers":{"DECAY_FACTOR()":"e08eae5f","DEFAULT_ADMIN_ROLE()":"a217fddf","MINIMUM_HISTORY_PERIOD()":"ffe554e2","PERFORMANCE_SCALE()":"dcd898fa","VERIFIER_ROLE()":"e7705db6","getHistoricalData(address,uint256)":"7e58174d","getRoleAdmin(bytes32)":"248a9ca3","getStrategyMetrics(address)":"0bd6b070","getStrategyTimestamps(address)":"b020b9e7","grantRole(bytes32,address)":"2f2ff15d","hasRole(bytes32,address)":"91d14854","historicalData(address,uint256)":"da4b81d9","renounceRole(bytes32,address)":"36568abe","revokeRole(bytes32,address)":"d547741f","strategyMetrics(address)":"b6e85026","strategyTimestamps(address,uint256)":"01fc7f46","supportsInterface(bytes4)":"01ffc9a7","updateStrategyData(address,uint256,uint256,uint256)":"ad6e8cda"}}}}}